:020000040800F2
:100000000000012061020108190201081B02010819
:100010001D0201081F020108210201080000000062
:1000200000000000000000000000000023020108A2
:100030002302010800000000230201083D4F0008D0
:1000400023020108230201082302010823020108F8
:1000500023020108230201082302010823020108E8
:1000600023020108230201082302010823020108D8
:100070002302010823020108FD560108230201089A
:100080002302010823020108E506010823020108F2
:1000900023020108230201082302010823020108A8
:1000A0002302010823020108230201082302010898
:1000B0002302010823020108230201082302010888
:1000C0002302010823020108230201082302010878
:1000D00023020108110B01089904010845050108D4
:1000E0002302010823020108230201082302010858
:1000F0002302010823020108230201082302010848
:100100002302010823020108230201082302010837
:1001100023020108230201084D0A010823020108F5
:100120002302010823020108230201082302010817
:10013000F8B50D46044608461146174603F0ACFDD7
:1001400039460646284603F009FE002D04DB002947
:1001500006DA0136C91B03E0002901DD013EC91999
:10016000266020466160F8BD10B5002302E0CC5C3B
:10017000C45401339342FAD110BD000000000000C6
:100180004D4B2DE9F34721F000469E4204460D46B3
:100190008A4613DD494A964201DC07D130B1204638
:1001A000294622462B4603F0EFFD30E1444B454DF6
:1001B000454CBAF1000FC8BF1D464DE1434B9E426E
:1001C00011DCA3F1DE739E4200F38C8038A3D3E9E7
:1001D000002303F0D9FD00223D4B04F017FA00285C
:1001E00000F0808038E100F0A3F93A4B9E420446CB
:1001F0000D4634DCA3F550239E421ADC02460B4622
:1002000003F0C2FD0022324B03F0BCFD00224FF090
:10021000804306460F462046294603F0B5FD0246B8
:100220000B463046394604F08BF8002604460D464E
:100230005AE00022264B03F0A5FD0022244B06467F
:100240000F462046294603F09FFD02460B463046E6
:10025000394604F075F8012604460D4644E01E4B6D
:100260009E4219DC00221D4B03F08CFD00221B4B2B
:1002700006460F462046294603F038FF0022144B5D
:1002800003F082FD02460B463046394604F058F82A
:10029000022604460D4627E022462B460020104940
:1002A00004F04EF8032604460D461DE0AFF300802F
:1002B0009C7500883CE4377EFFFF0F440000F07F10
:1002C000FB21F93FFB21F9BF182D4454FFFFDB3F11
:1002D0000000F03FFFFFF23FFF7F03400000F83FC8
:1002E0000000F0BF4FF0FF3622462B46204629463D
:1002F00003F0FCFE02460B46CDE9000103F0F6FEDA
:1003000057A3D3E900238046894603F0EFFE56A3A6
:10031000D3E9002303F038FD02460B464046494628
:1003200003F0E4FE52A3D3E9002303F02DFD0246BF
:100330000B464046494603F0D9FE4FA3D3E90023BC
:1003400003F022FD02460B464046494603F0CEFE2E
:100350004BA3D3E9002303F017FD02460B464046AA
:10036000494603F0C3FE48A3D3E9002303F00CFD84
:1003700002460B46DDE9000103F0B8FE44A3D3E9D1
:100380000023CDE900014046494603F0AFFE42A3F9
:10039000D3E9002303F0F6FC02460B4640464946EB
:1003A00003F0A4FE3EA3D3E9002303F0EBFC0246D6
:1003B0000B464046494603F099FE3BA3D3E9002390
:1003C00003F0E0FC02460B464046494603F08EFE31
:1003D00037A3D3E9002303F0D5FC02460B46404681
:1003E000494603F083FE0B46711C024612D1DDE93B
:1003F000000103F0C9FC02460B462046294603F0E3
:1004000075FE02460B462046294603F0BBFC044617
:100410000D4621E0284901EBC606DDE9000103F0A5
:10042000B3FC02460B462046294603F05FFED6E9A0
:10043000082303F0A7FC22462B4603F0A3FC024648
:100440000B46D6E9000103F09DFCBAF1000F0D4602
:100450000446B8BF01F1004520462946BDE8FC87A7
:1004600011DA22E33AAD903FEB0D76244B7BA93FA6
:10047000513DD0A0660DB13F6E204CC5CD45B73F74
:10048000FF8300922449C23F0D5555555555D53F20
:100490002F6C6A2C44B4A2BF9AFDDE522DDEAD3F14
:1004A0006D9A74AFF2B0B33F711623FEC671BC3FB4
:1004B000C4EB98999999C93FA0800108AFF30080D7
:1004C000194A21F0004330B5934287B004460D46E7
:1004D00002DC0022002315E0144A934204DD0246A8
:1004E0000B4603F04FFC1DE002AA01F0CDFBDDE955
:1004F000042300F00304DDE90201012C05D0022CE5
:1005000007D05CB902F03CF90CE0009402F090FDD9
:1005100001E002F035F901F1004103E0012400940B
:1005200002F086FD07B030BDFB21E93FFFFFEF7F02
:1005300021F00041704700001B4A21F0004330B514
:10054000934287B004460D4604DC0023002200934A
:10055000002317E0154A934204DD02460B4603F0E0
:1005600011FC1EE002AA01F08FFBDDE9042300F07C
:100570000304DDE90201012C07D0022C08D064B984
:100580000124009402F054FD0BE002F0F9F808E0B9
:100590000124009402F04CFD01E002F0F1F801F1B9
:1005A000004107B030BD00BFFB21E93FFFFFEF7FF7
:1005B000134A21F0004330B5934287B004460D46FC
:1005C00004DC012300220093002314E00D4A93422F
:1005D00004DD02460B4603F0D5FB0EE002AA01F053
:1005E00053FB00F00103DDE902015B00C3F10103ED
:1005F0000093DDE9042302F0DBFD07B030BD00BF4E
:10060000FB21E93FFFFFEF7F2DE9F04120F000459E
:10061000B5F1A14F044607460BDBB5F1FF4F03DDF3
:10062000014604F09BF8DFE0002840F3DB80704CCB
:10063000DBE0704B9D420CDCB5F1445F57DA6E494C
:1006400004F08CF84FF07E5104F04CFB00284ED0A3
:10065000CBE000F0F3F8694B9D42044628DCA3F59B
:10066000D0039D4213DC0146002604F077F84FF0DA
:100670007E5104F071F84FF080410546204604F0A9
:100680006DF80146284604F025FA044631E04FF0A3
:100690007E51012604F060F84FF07E510546204659
:1006A00004F05CF80146284604F014FA044620E001
:1006B000534B9D4214DC4FF07F51022604F04CF85E
:1006C0004FF07F510546204604F050F94FF07E511F
:1006D00004F044F80146284604F0FCF9044608E01A
:1006E0002146484804F0F6F90326044601E04FF09D
:1006F000FF362146204604F039F90146804604F0D1
:1007000035F94149054604F031F9404904F026F82D
:100710000146284604F02AF93D4904F01FF8014635
:10072000284604F023F93B4904F018F8014628460E
:1007300004F01CF9384904F011F80146284604F089
:1007400015F9364904F00AF80146404604F00EF95E
:1007500033498046284604F009F9324903F0FCFF8A
:100760000146284604F002F92F4903F0F5FF01463F
:10077000284604F0FBF82D4903F0EEFF0146284619
:1007800004F0F4F82A4903F0E7FF0146284604F094
:10079000EDF8731C01460BD1404603F0DFFF014624
:1007A000204604F0E3F80146204603F0D5FF1BE0A5
:1007B0004046204D03F0D2FF0146204604F0D6F813
:1007C00005EB8603196903F0C7FF214603F0C4FF58
:1007D000014655F8260003F0BFFF002F04DA00F1B0
:1007E000004402E0144C00E004462046BDE8F081DD
:1007F000DB0FC93FFFFFDF3ECAF24971FFFF973FA2
:10080000FFFF1B40000080BFD769853C59DA4B3D94
:10081000356B883D6E2EBA3D2549123EABAAAA3EE5
:1008200021A215BD6BF16E3D95879D3D388EE33D50
:10083000CDCC4C3EE0800108DB0FC9BF20F000406A
:10084000704700002DE9D0438AB006460F4600F0FD
:10085000CFFA1F4C94F9003001338046894631D0DD
:100860003046394603F034F900282BD0304639465B
:10087000FFF75EFE0022174B03F0C8FE10B3012302
:100880000093154B1548CDE9046701930023CDE98A
:100890000267089303F050F994F90030022BCDE978
:1008A000060103D0684603F045F918B904F06AFA66
:1008B00021230360089B1BB104F064FA089B0360CA
:1008C000DDE90689404649460AB0BDE8D08300BF4D
:1008D000000000200000F03F258301084E8301083E
:1008E00000F0D6BC000000002DE9D0438AB00646D7
:1008F0000F4600F0BDFD244C94F9003001338046D2
:10090000894637D03046394603F0E2F8002831D026
:1009100030463946FFF70CFE19A3D3E9002303F054
:1009200075FE38B303230093184B2178CDE9046793
:1009300001930023CDE90267089329B9144B4FF0C6
:100940006042CDE9062305E0124B00220229CDE9E1
:10095000062303D0684603F0EDF818B904F012FA44
:1009600022230360089B1BB104F00CFA089B036070
:10097000DDE90689404649460AB0BDE8D08300BF9C
:100980007DF8B98FCE338640000000202A8301080D
:10099000FFFFEF470000F07F2DE970438AB0044667
:1009A0000D4600F0FDFD324E96F9003001338046D1
:1009B00089464FD02046294602F0FAFF002849D048
:1009C0002046294626A3D3E9002303F01FFEB8B131
:1009D00003230093274B3178CDE90445019300238D
:1009E000CDE90245089329B9234B4FF06042CDE988
:1009F00006231FE0214B00220229CDE9062318E03F
:100A00002046294618A3D3E9002303F0E1FD08B3EB
:100A100004230093174B0022CDE90445CDE902459C
:100A20000193002308930023CDE9062396F90030B3
:100A3000022B03D0684603F07DF818B904F0A2F940
:100A400022230360089B1BB104F09CF9089B036000
:100A5000DDE90689404649460AB0BDE8708300BF1B
:100A6000EF39FAFE422E864051302DD5104987C00D
:100A7000000000202F830108FFFFEF470000F07FF8
:100A80002DE9D0438AB08046894600F0F9FE2D4C0E
:100A900094F90030013306460F464DD04046494692
:100AA00003F016F8002847D04046494600220023AC
:100AB00003F0ACFD00283FD1234B2478CDE9028917
:100AC00001930023CDE9048908931CB94FF06042DB
:100AD0001E4B01E01E4B0022CDE90623404649464D
:100AE0000022002364B203F069FD60B10223009389
:100AF0009C4203D0684603F01DF8A8B904F042F9FF
:100B00002223036010E00123022C009303D06846E7
:100B100003F010F818B904F035F9212303600D48EB
:100B200003F00AF8CDE90601089B1BB104F02AF98D
:100B3000089B0360DDE90667304639460AB0BDE828
:100B4000D08300BF0000002033830108FFFFEFC700
:100B50000000F0FF4E8301082DE9F0438BB00446FE
:100B60000D4601F075FA264E96F9003001338046A5
:100B700089463FD002F01CFF074600283AD12046A4
:100B8000294602F015FF002834D0032300931D4BA3
:100B90002046367829460897002201930023CDE9A4
:100BA0000445CDE9024556B903F030FD4FF06042EF
:100BB00008B1154B00E0154BCDE906230AE003F020
:100BC00025FD002208B1124B00E0124B022ECDE9A8
:100BD000062303D0684602F0ADFF18B904F0D2F83E
:100BE00022230360089B1BB104F0CCF8089B036030
:100BF000DDE90689404649460BB0BDE8F08300BFF9
:100C00000000002037830108FFFFEF47FFFFEFC719
:100C10000000F07F0000F0FF2DE9D04F8AB00646BB
:100C20000F4601F0C9FA234C94F900300133824693
:100C30008B463AD03046394602F04AFF002834D07D
:100C40004FF000084FF000093046394642464B4607
:100C500003F0BEFC002828D001230093164B247813
:100C6000CDE9046701930023CDE90267089314B925
:100C7000CDE9068909E04046494642464B4603F025
:100C80005FFB022CCDE9060103D0684602F052FF5B
:100C900018B904F077F821230360089B1BB104F016
:100CA00071F8089B0360DDE906AB504659460AB06F
:100CB000BDE8D08F000000203C83010870B58AB0E9
:100CC000044601F027FB1F4E96F90030013305461C
:100CD00035D0204602F0ACFF002830D02046FFF788
:100CE000ADFD4FF07E5103F0FDFF40B301230093B3
:100CF000154B204601930023089303F0A3F9CDE997
:100D00000401CDE90201114802F016FF96F9003006
:100D1000022BCDE9060103D0684602F00BFF18B99B
:100D200004F030F821230360089B1BB104F02AF87B
:100D3000089B0360DDE9060103F0BAFC054628467E
:100D40000AB070BD00000020418301084E830108F5
:100D500001F036BC70B58AB0044601F0C1FC224EE9
:100D600096F90030013305463BD0204602F060FF83
:100D7000002836D02046002103F096FF002830D00E
:100D800001230093194B204601930023089303F09D
:100D900059F93478CDE90401CDE9020124B90022E2
:100DA0000023CDE9062309E00020002102460B467E
:100DB00003F0C6FA022CCDE9060103D0684602F022
:100DC000B9FE18B903F0DEFF21230360089B1BB1B5
:100DD00003F0D8FF089B0360DDE9060103F068FC1F
:100DE000054628460AB070BD000000204783010870
:100DF0007D4B2DE9F04F21F0004687B09E4204461E
:100E00000D46019122DD06F14046034606F58016A7
:100E1000334312D15AA3D3E9002303F067F95AA34D
:100E2000D3E9002306460F462046294603F05EF923
:100E300002460B46304639469CE022462B4602F0DD
:100E4000A1FF02460B4603F07BFA95E0674B9E42FA
:100E500000F3D080B6F1795F0CDA4DA3D3E900231B
:100E600002F092FF0022624B03F0D0FB002800F05A
:100E7000C180CAE122462B4603F038F946A3D3E9E4
:100E8000002306460F4603F031F945A3D3E90023BA
:100E900002F07AFF02460B463046394603F026F947
:100EA00041A3D3E9002302F06DFF02460B46304612
:100EB000394603F01BF93EA3D3E9002302F064FF97
:100EC00002460B463046394603F010F93AA3D3E9FF
:100ED000002302F057FF02460B463046394603F026
:100EE00005F937A3D3E9002302F04EFF02460B4673
:100EF0003046394603F0FAF833A3D3E9002380469D
:100F000089463046394603F0F1F831A3D3E900238E
:100F100002F038FF02460B463046394603F0E6F849
:100F20002DA3D3E9002302F02FFF02460B463046E3
:100F3000394603F0DBF82AA3D3E9002302F022FFAD
:100F400002460B463046394603F0D0F80022284BC3
:100F500002F01AFF02460B464046494603F0F0F9FC
:100F600002460B462046294603F0C0F802460B46CF
:100F70002046294602F008FF04460D4645E100BF21
:100F8000182D4454FB21F93F075C143326A6913CED
:100F90009C7500883CE4377E09F7FD0DE13D023F7A
:100FA00088B20175E0EF493F3B8F68B52882A43FC6
:100FB0005544880E55C1C93F7D6FEB0312D6D43F0F
:100FC000555555555555C53F82922EB1C5B8B33FBD
:100FD00059018D1B6C06E63FC88A599CE52A0040E2
:100FE0004B2D8A1C273A0340FFFFEF3FFFFFDF3FF7
:100FF0000000F03F20462946FFF79AFA02460B46CA
:1010000000209F4902F0BEFE00229E4B03F06EF8C6
:1010100081A3D3E9002304460D4603F067F880A3BB
:10102000D3E9002302F0B0FE02460B4620462946D3
:1010300003F05CF87CA3D3E9002302F0A3FE024690
:101040000B462046294603F051F879A3D3E9002343
:1010500002F09AFE02460B462046294603F046F867
:1010600075A3D3E9002302F08DFE02460B4620460D
:10107000294603F03BF872A3D3E9002302F084FE73
:1010800002460B462046294603F030F86EA3D3E90A
:101090000023CDE902012046294603F027F86CA37E
:1010A000D3E9002302F06EFE02460B462046294695
:1010B00003F01CF868A3D3E9002302F065FE0246A2
:1010C0000B462046294603F011F865A3D3E9002317
:1010D00002F058FE02460B462046294603F006F869
:1010E0000022674B02F050FE82468B46204629467E
:1010F00001F062F8644B9E428046894620DD5246EC
:101100005B46DDE9020103F01BF902460B4640464F
:10111000494602F0EBFF02460B464046494602F0C4
:1011200033FE02460B4602F02FFE4FA3D3E9002305
:1011300002F028FE02460B464DA1D1E900015BE01A
:1011400000220B46164602460F4602F01DFE52468E
:101150005B46CDE90401DDE9020103F0F1F8024646
:101160000B46DDE9040102F0C1FF32464B468246E0
:101170008B463046494602F0B9FF02460B462046F0
:10118000294602F0FFFD32464B4604460D464046D6
:10119000494602F0F9FD02460B462046294603F077
:1011A000CFF802460B4602F0EFFD02460B462EA199
:1011B000D1E9000102F0E6FD02460B4650465946D1
:1011C00002F0E0FD32463B4604460D4630464946B5
:1011D00002F0DAFD02460B4627A1D1E9000102F038
:1011E000D1FD02460B462046294602F0CBFD0246C1
:1011F0000B4621A1D1E9000102F0C4FD019B002BA7
:101200000D460446D8BF01F100452046294607B0E7
:10121000BDE8F08FAFF3008009F7FD0DE13D023F1F
:1012200088B20175E0EF493F3B8F68B52882A43F43
:101230005544880E55C1C93F7D6FEB0312D6D43F8C
:10124000555555555555C53F82922EB1C5B8B33F3A
:1012500059018D1B6C06E63FC88A599CE52A00405F
:101260004B2D8A1C273A0340075C143326A6913C79
:10127000182D4454FB21F93F182D4454FB21E93F1C
:101280000000F03F0000E03F3233EF3FAFF300805B
:101290002DE9FF479046CDE9022323F0004702469F
:1012A00099460B46CDE90023C8F100036E4E43EA90
:1012B000080304460D46019A47EAD373DDF800A0FF
:1012C000B3420AD822F000439446CAF1000242EA2F
:1012D0000A0243EAD272B24206D920462946DDE923
:1012E000022302F051FD94E009F1404202F5801220
:1012F00052EA080204D104B0BDE8F047FEF740BF4F
:101300004FEAA97653EA0A0A06F0020646EADC76B4
:1013100005D1032E03D8DFE806F07E7E252957EAA3
:10132000080829D0504A974224D1BB4211D1032E3C
:1013300022D8DFE806F00262060A39A5D5E90045A1
:1013400069E039A5D5E9004565E039A5D5E900454D
:1013500061E0032E0ED8DFE806F0025405090024F0
:10136000002558E034A5D5E9004554E034A5D5E979
:10137000004550E0934206D1BCF1000F45DA32A59A
:10138000D5E9004547E0DB1B1B153C2B0FDCB9F111
:10139000000F01DA3C330EDBDDE90223204629464B
:1013A00002F0CEFFFFF7C4F8FEF7EAFE05E028A141
:1013B000D1E9000101E000200021012E03D0022E1E
:1013C00005D036B30EE0044601F1004523E022A328
:1013D000D3E9002302F0D6FC02460B4616A1D1E960
:1013E000000107E01CA3D3E9002302F0CBFC12A309
:1013F000D3E9002302F0C6FC0BE019A5D5E90045AE
:1014000009E000244FF0004505E011A5D5E90045AD
:1014100001E004460D462046294604B0BDE8F087A9
:10142000182D4454FB21E93FD221337F7CD902405F
:10143000D221337F7CD902C0182D4454FB210940AE
:10144000182D4454FB2109C0182D4454FB21F9BF29
:10145000182D4454FB21F93F075C143326A6A13C08
:10146000182D4454FB21E9BF0000F07FAFF300804A
:101470002DE9F84321F00044414B06460F469C42BB
:1014800002DD02460B466FE03E4B9C4225DCFFF737
:101490004FF802F07DF800223B4B8046894602F06F
:1014A00073FCB4F1725F06460F4661DB42464B4661
:1014B0004046494602F01AFE32463B4604460D4677
:1014C0003046394602F060FC02460B46204629466B
:1014D00002F036FF00222C4B18E02C4B9C4218DC0B
:1014E000FFF726F800F05CF80022294B04460D4671
:1014F00002F0FCFD22462B4606460F4600202449FA
:1015000002F01EFF02460B463046394602F03CFC14
:101510002CE0204B9C4206DCFFF70AF800F040F874
:1015200000221B4B20E01C4B9C4205DD01339C42FA
:1015300015D11A4B984212D830463946FEF7F8FFBB
:101540000022134B02F0D2FD00F02AF80022104BCB
:1015500004460D4602F0CAFD22462B4604E006A1D1
:10156000D1E9000102460B4602F0C0FD06460F46D7
:1015700030463946BDE8F8839C7500883CE4377EE8
:10158000FFFFEF7F422ED63F0000F03FFFFF3540C8
:101590000000E03F412E8640CD3386407DF8B98F74
:1015A0002DE9F74F21F00043A94ACC0F06460F461C
:1015B00093420D4623D9A74A93420BD921F07F4588
:1015C000024625F470050B46054375D1002C00F04A
:1015D0004F814BE188A3D3E9002303F017F828B12A
:1015E00087A1D1E9000102460B46FDE030463946AD
:1015F00085A3D3E9002302F0EBFFC0B136E1964AA0
:10160000934248D9954A934211D8954DC4F10008A8
:1016100005EBC405C4EB080404F10108D5E9002377
:1016200002F0B0FBD5E904ABCDE900012AE078A3D4
:10163000D3E900233046394602F058FD884B03EBCE
:10164000C404D4E9082302F09FFB02F0E9FF8046BE
:1016500002F0E6FC70A3D3E9002304460D4602F035
:1016600045FD02460B463046394602F08BFB6CA323
:10167000D3E90023CDE900012046294602F036FDDA
:1016800082468B46DDE9000152465B4602F07AFB5A
:1016900006460F4615E0734A934210D858A3D3E983
:1016A000002302F071FB00226F4B02F0AFFF40B14C
:1016B0006D4B30463946002202F066FB96E04FF053
:1016C000000832463B463046394602F00FFD56A32D
:1016D000D3E9002304460D4602F008FD54A3D3E9E4
:1016E000002302F04FFB02460B462046294602F03B
:1016F000FDFC51A3D3E9002302F046FB02460B4652
:101700002046294602F0F2FC4DA3D3E9002302F063
:1017100039FB02460B462046294602F0E7FC4AA365
:10172000D3E9002302F030FB02460B46204629464F
:1017300002F0DCFC02460B463046394602F022FB42
:1017400004460D463046394622462B46B8F1000F76
:101750001BD102F0CBFC00224FF08043804689462B
:101760002046294602F00EFB02460B4640464946FB
:1017700002F0E6FD32463B4602F004FB02460B4611
:101780000020394902F0FEFA30E002F0AFFC2246B8
:101790002B4606460F4600204FF0804102F0F2FA39
:1017A00002460B463046394602F0CAFD02460B4659
:1017B0005046594602F0E6FADDE9002302F0E2FA6B
:1017C0000B4602462849002002F0DCFA6FF47F73D2
:1017D000984502DB01EB085108E008F57A78002211
:1017E0004FF0B87301EB085102F080FC06460F463B
:1017F0003EE000BFAFF30080EF39FAFE422E864094
:101800009C7500883CE4377E51302DD5104987C047
:10181000FE822B654715F73F0000E0FE422EE63FB3
:10182000763C7935EF39EA3DD0A4BE726937663E21
:10183000F16BD2C541BDBB3E2CDE25AF6A56113FD0
:1018400093BDBE166CC1663F3E5555555555C53FB7
:10185000412E8640FFFFEF7F422ED63FB1A2F03FE0
:1018600000810108FFFF2F3E0000F03F0026002707
:101870003046394603B0BDE8F08F00BFAFF30080BB
:10188000B1F5801F02462DE9F04F0B4687B00446A4
:101890000D460E4619DA21F00045054302D100201D
:1018A000594903E0002906DA02F06CFA002200230D
:1018B00002F046FDBCE10022544B02F017FC0B463F
:1018C0000D4602466FF0350100E000215048854288
:1018D00002DD1046194641E02C1525F07F4525F420
:1018E0007005A4F2FF340C1905F5152101F6647199
:1018F00001F4801181F07F5080F4401004EB11540A
:1019000040EA0503104619460022424B02F03AFA1B
:10191000AB1C23F470030022022B82468B467DDC35
:10192000002302F04BFEE0B1002C00F07F81204646
:1019300002F076FB2EA3D3E9002304460D4602F005
:10194000D5FB2DA3D3E9002306460F4620462946A2
:1019500002F0CCFB02460B463046394602F014FA40
:1019600066E152465B465046594602F0BFFB24A34F
:10197000D3E9002306460F465046594602F0B6FB0F
:1019800002460B460020244902F0FCF902460B46B1
:101990003046394602F0AAFB06460F4624B95046A7
:1019A000594632463B463EE1204602F039FB10A341
:1019B000D3E9002304460D4602F098FB0EA3D3E9B9
:1019C0000023804689462046294602F08FFB0246C6
:1019D0000B463046394602F0D5F952465B4602F0D6
:1019E000D1F902460B46404649461CE1AFF3008060
:1019F0000000E0FE422EE63F763C7935EF39EA3DC5
:101A0000555555555555D53F000050C3000050431E
:101A1000FFFFEF7F0000F03F0000E03F4FF080430A
:101A2000A5F5C22602F0B0F9C5F5D7255135A6F2C5
:101A30007A46354302460B465046594602F080FC32
:101A4000CDE90001204602F0EBFACDE90401DDE921
:101A5000000102460B4602F049FB02460B46CDE967
:101A6000020102F043FB74A3D3E9002380468946B8
:101A700002F03CFB72A3D3E9002302F085F9024691
:101A80000B464046494602F031FB6FA3D3E90023E1
:101A900002F07AF902460B464046494602F026FB20
:101AA0006BA3D3E9002302F06FF902460B46DDE990
:101AB000020102F01BFB68A3D3E90023CDE9020178
:101AC0004046494602F012FB65A3D3E9002302F029
:101AD0005BF902460B464046494602F007FB62A30B
:101AE000D3E9002302F050F902460B46404649462E
:101AF00002F0FCFA02460B46DDE9020102F044F96D
:101B0000002D8046894650DD00225D4B50465946E7
:101B100002F0ECFA52465B4602F0E8FA06460F463F
:101B200084B942464B4602F02FF902460B46DDE9E6
:101B3000000102F0DBFA02460B463046394602F05D
:101B400021F93FE04AA3D3E90023DDE9040102F0D3
:101B5000CDFA42464B46CDE902013046394602F005
:101B600013F902460B46DDE9000102F0BFFA42A379
:101B7000D3E9002304460D46DDE9040102F0B6FA7C
:101B800002460B462046294602F0FEF802460B4666
:101B90003046394602F0F6F852465B4602F0F2F85B
:101BA00002460B46DDE902013DE084B942464B4660
:101BB0005046594602F0E6F802460B46DDE90001C0
:101BC00002F094FA02460B46504659462BE028A3F1
:101BD000D3E90023DDE9040102F088FA42464B46CE
:101BE00006460F465046594602F0CCF802460B46D0
:101BF000DDE9000102F07AFA1FA3D3E900230446CD
:101C00000D46DDE9040102F071FA02460B4620465A
:101C1000294602F0B7F852465B4602F0B3F8024696
:101C20000B463046394602F0ADF801E000200021B5
:101C300007B0BDE8F08F00BF44523EDF12F1C23F53
:101C4000DE03CB966446C73F599322942449D23F82
:101C5000935555555555E53F9FC678D0099AC33FD2
:101C6000AF788E1DC571CC3F04FA97999999D93FE9
:101C70000000E0FE422EE63F763C7935EF39EA3D42
:101C80000000E03FAFF30080A94B2DE9F04F21F0B9
:101C900000468FB09E42804689461546079106DC75
:101CA000C2E9008900230022C5E9022374E1A14BA7
:101CB0009E426FDC079BA04C002B8FA3D3E900232F
:101CC00033DD02F05FF8A6428046894610D08CA32F
:101CD000D3E9002302F056F802460B464046C5E918
:101CE0000023494602F04EF885A3D3E9002316E00D
:101CF00085A3D3E9002302F045F885A3D3E90023A7
:101D000006460F4602F03EF802460B463046C5E94D
:101D10000023394602F036F87DA3D3E9002302F010
:101D200031F80124C5E9020186E102F02DF8A6424E
:101D30008046894610D072A3D3E9002302F024F82C
:101D400002460B464046C5E90023494602F01AF810
:101D50006BA3D3E9002316E06BA3D3E9002302F0C1
:101D600013F86BA3D3E9002306460F4602F00CF8E4
:101D700002460B463046C5E90023394602F002F818
:101D800063A3D3E9002301F0FFFF4FF0FF34C5E95F
:101D9000020151E1694B9E4200F3F380FEF7C8FB5C
:101DA0005DA3D3E900238046894602F09FF9002213
:101DB000634B01F0E9FF02F033FC044602F030F916
:101DC0004DA3D3E90023CDE9020102F08FF90246C9
:101DD0000B464046494601F0D5FF49A3D3E900230D
:101DE00080468946DDE9020102F080F91F2C824617
:101DF0008B464046494605DC524B621E53F8223062
:101E00009E426FD15B46524601F0BCFF3615C1F3CE
:101E10000A53C5E90001F31A102B40F397803AA347
:101E2000D3E90023DDE9020102F060F982468B4626
:101E300052465B464046494601F0A4FFCDE9040105
:101E40004046DDE90423494601F09CFF52465B46CB
:101E500001F098FF2EA3D3E9002380468946DDE9EF
:101E6000020102F043F942464B4601F08BFF8246E5
:101E70008B465B46DDE90401524601F083FFC1F366
:101E80000A53C5E90001F61A312E5DDD24A3D3E91A
:101E90000023DDE9020102F029F906460F46324629
:101EA0003B46DDE9040101F06DFF8046894642466C
:101EB0004B46DDE9040101F065FF32463B4601F087
:101EC00061FF19A3D3E9002306460F46DDE90201AD
:101ED00002F00CF932463B4601F054FF82468B4635
:101EE0004046494652465B4601F04CFFC5E90001B9
:101EF0002CE000BFAFF3008000004054FB21F93F0D
:101F00003163621A61B4D03D0000601A61B4D03D03
:101F10007370032E8A19A33B83C8C96D305FE43FF9
:101F20000000002E8A19A33BC14920259A837B39E2
:101F3000FB21E93F7BD90240FB21F93FFB213941DD
:101F40000000E03F30810108DDE9048995E8C00028
:101F50004046494632463B4601F014FF52465B4636
:101F600001F010FF0B460246C5E90223079B002B38
:101F700062DA07F1004701F100416F60A860E96093
:101F800059E02F4B9E4209DD02460B4601F0FAFE56
:101F9000C5E90201C5E9000100244DE03415A4F2B1
:101FA00016442105731A19461F4602F039FB02F048
:101FB00037F802460B4640463946CDE9082301F082
:101FC000E1FE00221F4B02F091F80F46064602F098
:101FD00027FB02F025F802460B4630463946CDE98C
:101FE0000A2301F0CFFE0022164B02F07FF80EAF5D
:101FF0000326CDE90C0100E0013E77E90201002251
:10200000002302F0DBFA0028F6D1022300930E4BE6
:10201000224608A829460193334600F09DFC079B01
:10202000002B044608DA6B6803F100436B60EB6831
:1020300003F10043EB60644220460FB0BDE8F08F2F
:10204000FFFFEF7F00007041B0810108AFF3008017
:102050004F4A2DE9F84F21F00046964204460D46BE
:1020600004DD02460B4601F08FFE86E00029494B55
:102070004FF00008ACBFDFF83891DFF838919E428E
:102080004EDC454B9E420ADC3FA3D3E9002301F01E
:102090007BFE0022414B02F0B9FA00286FD12046A6
:1020A0002946FEF745FA01F073FA3D4B9E4204467D
:1020B0000D4620DC02460B4601F066FE22462B460A
:1020C00082468B462046294602F010F80022334B08
:1020D00006460F462046294601F056FE02460B46AC
:1020E0003046394602F02CF902460B465046594616
:1020F00001F048FE0FE00022284B01F045FE0246A9
:102100000B462046294602F01BF902460B462046A4
:10211000294601F039FE02460B46404649462AE070
:10212000204B9E4204DCFEF703FAFFF739FAF2E790
:102130001D4B9E4205DD01339E4217D11B4B984239
:1021400014D820462946FEF7F3F90022184B01F077
:10215000CDFFFFF725FA04460D4622462B464046A2
:10216000494601F0C3FF22462B4604E006A3D3E90B
:1021700000232046294601F0B9FF04460D462046BB
:102180002946BDE8F88F00BF3374AC3C1F7BAC7FA1
:10219000FFFFEF7FFFFF3540FFFF2F3E0000F03FC6
:1021A000FFFFEF3F412E8640CD3386407DF8B98F4B
:1021B0000000E03F0000E0BF2DE9F8430246544E26
:1021C0000446534F0D460E400B46BE420AD102460E
:1021D0000B4601F08BFF02460B462046294601F0D4
:1021E000D3FD0FE0002910DC21F00046064300F08B
:1021F0008A8051B102460B4601F0C4FD02460B46EF
:1022000002F09EF804460D467DE01E1514D102E052
:10221000D30A153E5205002BFAD0002101E05B00E5
:102220000131DD02FBD5C1F101003618C1F12000FA
:1022300032FA00F08A400343A6F2FF3623F07F43D0
:10224000F40723F4700343F4801303D5D10F520035
:1022500001EB4303D10F002401EB4303761052003E
:10226000162120464FF4001547199F4202DC7819C9
:10227000DB1B6419D70F6D085200013907EB4303CC
:10228000F2D14FF0200C88464FF00045984208EB01
:10229000050702DB18D1974215D807F0004907EB74
:1022A0000508B9F1004F05D1B8F1000F02DB00F1CC
:1022B000010900E081461B1ABA4238BF013BD21B1C
:1022C0004919484600E00346D70F6D085200BCF19B
:1022D000010C07EB4303D9D1134307D0481C02D1AB
:1022E0000134614602E001F0010359186310490806
:1022F00003F17F53E20703F5001348BF41F00041AB
:1023000003EB06550C4620462946BDE8F88300BF7E
:102310000000F07F2DE9F04720F00045B5F17E5F29
:10232000044607460AD1964902F020FB9549054626
:10233000204602F01BFB0146284669E006DD014607
:1023400002F00AFA014602F0C5FB15E1B5F17C5F27
:1023500061DAB5F1485F09DA8B4902F0FFF94FF015
:102360007E5102F0BFFC002855D006E1014602F084
:10237000FDFA8649054602F0F9FA854902F0EEF9C0
:102380000146284602F0F2FA824902F0E5F90146D8
:10239000284602F0EBFA804902F0E0F901462846AF
:1023A00002F0E4FA7D4902F0D7F90146284602F02E
:1023B000DDFA7B4902F0D2F90146284602F0D6FA4E
:1023C00078490646284602F0D1FA774902F0C4F966
:1023D0000146284602F0CAFA744902F0BFF90146E4
:1023E000284602F0C3FA724902F0B6F901462846BF
:1023F00002F0BCFA4FF07E5102F0B0F901463046CF
:1024000002F068FB0146204602F0B0FA0146204681
:1024100002F0A4F9B0E02046FEF710FA01464FF0B2
:102420007E5002F099F94FF07C5102F09FFA574923
:10243000044602F09BFA564902F090F90146204604
:1024400002F094FA534902F087F90146204602F05F
:102450008DFA514902F082F90146204602F086FACF
:102460004E4902F079F90146204602F07FFA4C49C4
:1024700002F074F90146204602F078FA4949814693
:10248000204602F073FA484902F066F901462046F8
:1024900002F06CFA454902F061F90146204602F06B
:1024A00065FA434902F058F90146204602F05EFA07
:1024B0004FF07E5102F052F98046204600F010F9AC
:1024C0003C4B9D42064614DD4146484602F002FB65
:1024D0000146304602F04AFA0146304602F03EF923
:1024E000014602F03BF9344902F038F9014624482C
:1024F0003BE0014620F47F6502F030F9414625F0CB
:102500000F058246484602F0E5FA0146504602F0C1
:102510002DFA29468046284602F028FA0146204630
:1025200002F01AF929460446304602F017F901462E
:10253000204602F0CFFA014602F010F90146114898
:1025400002F00AF90146404602F006F9294604461F
:10255000284602F003F90146184802F0FDF801464A
:10256000204602F0F9F80146144802F0F5F8002F71
:1025700002DC00F1004400E004462046BDE8F0879C
:10258000DB0FC93F2EBD3BB3CAF2497108EF1138CA
:10259000047F4F3A4611243DA80A4E3E90B0A63E15
:1025A000ABAA2A3E2EC69D3D6133303F2D570140D8
:1025B00039D119409999793F2EBD3B33DB0F493F03
:1025C000F8B521F00046B6F1FF4F03460D4605DC95
:1025D00020F000420746B2F1FF4F03DD184602F03B
:1025E000BDF867E0B1F17E5F03D1BDE8F840FEF7CA
:1025F0000BB88C1704F0020444EAD07422B9022C00
:102600001DD0032C57D11CE006B3B6F1FF4F1AD1F1
:10261000B2F1FF4F0BD1022C05D0032C05D0012CB9
:1026200041D0264B47E0264B45E0264B43E0022CA9
:1026300005D0032C05D0012C37D000233BE0224BE2
:1026400039E0224B37E0B2F1FF4F03D1002F2FDAF0
:102650001F4B30E0921BD2153C2A0BDC002901DA1B
:102660003C3209DB184602F035FAFEF7E7F8FDF7D1
:10267000CBFF02E0174800E00020012C03D0022C21
:1026800004D0BCB108E000F1004314E0124902F0AC
:1026900065F801460C4803E00F4902F05FF80A496B
:1026A00002F05AF806E00D4B05E04FF0004302E05F
:1026B000084B00E003461846F8BD00BFDB0F493F5A
:1026C000E4CB1640E4CB16C0DB0F4940DB0F49C01A
:1026D000DB0FC9BFDB0FC93F2EBDBB33DB0F49BFCB
:1026E00020F000420346B2F1FF4F70B5044607D315
:1026F000014602F03BF90146204602F02FF809E0BE
:10270000002A3AD0002807DA014602F025F80146EF
:1027100002F0E0F9044630E0C415B2F5000F08D22B
:10272000002201E05B0001321902FBD5C2F1010277
:10273000A41823F07F437F3C23F40003E20743F413
:1027400000034FF0807148BF5B0000226410192025
:102750005B00164675189D4202DC6E185B1B521812
:102760005B0049080138F5D113B102F00103D2181A
:10277000521002F17C5202EBC454204670BD00009E
:102780002DE9F04F21F0004487B0B4F1795F824623
:102790008B46CDE9022304DA01F042FF002800F065
:1027A000B08052465B465046594601F09FFC58A304
:1027B000D3E9002306460F4601F098FC56A3D3E95F
:1027C000002301F0E1FA02460B463046394601F09B
:1027D0008DFC53A3D3E9002301F0D4FA02460B4643
:1027E0003046394601F082FC4FA3D3E9002301F0C3
:1027F000CBFA02460B463046394601F077FC4CA333
:10280000D3E9002301F0BEFA02460B4630463946B2
:1028100001F06CFC48A3D3E9002301F0B5FA0B46A4
:1028200002463946304601F061FC454B9C428046E9
:10283000894626DC0022434B3046394601F056FCDF
:1028400042464B46CDE900013046394601F04EFC88
:10285000DDE9022304460D465046594601F046FC88
:1028600002460B462046294601F08CFA02460B46EA
:10287000DDE9000101F086FA02460B4600203249EC
:102880003CE0324B9C4205DCA4F5001300221446C8
:102890001D4601E02E4D002422462B4600202A49E9
:1028A00001F070FA0022274BCDE90001304639468D
:1028B00001F01CFC22462B4601F064FA42464B46CE
:1028C000CDE904013046394601F010FCDDE9022370
:1028D00004460D465046594601F008FC02460B4698
:1028E0002046294601F04EFA02460B46DDE9040176
:1028F00001F048FA02460B46DDE9000101F042FA18
:1029000001E01149002007B0BDE8F08FAFF300806F
:10291000D43888BEE9FAA8BDC4B1B4BD9EEE213E4C
:10292000AD529C804F7E923E9015CB19A001FA3E8D
:102930007751C1166CC1563F4C5555555555A53F5D
:102940003233D33F0000E03F0000F03F0000E93F9A
:102950000000D23FAFF300802DE9F04FADF5197DB7
:102960001446182705930AAE0491AC4BA299059A18
:102970000990E01E53F821301821013A0092029389
:1029800001F08AF90299A39A20EAE0700890C34303
:1029900007FB0347009C051B04EB0109002402EB25
:1029A00085080BE0EC4204D458F8240001F038FB11
:1029B00001E0002000210134E6E902014C45F1DD8F
:1029C0000DF5B47900244D4617E074E90223013671
:1029D000F5E8020101F08AFB02460B4650465946D3
:1029E00001F0D2F982468B46009B9E42EDDD4C46BB
:1029F0003D4601344746E5E902AB02998C4201DDD0
:102A00000D4614E0059A0CABDDF824804FF0000A67
:102A100004EB02094FF0000B002603EBC9092B461B
:102A20004A464546A146B84614461F46DCE74FEAEB
:102A3000C50898AC04EB08035CA988442C4653E90C
:102A40003CAB434683AEA8461D4622E00022744BB1
:102A50005046594601F04AFB013C01F0E1FD01F00E
:102A6000DFFA00226F4BCDE9060101F03FFB024681
:102A70000B465046594601F085F901F0D1FDDDE9DC
:102A8000062346F8040F75E9020101F07DF982463C
:102A90008B46002CDADC3A4650465946454601F052
:102AA00053F800224FF07F538046894601F01EFB09
:102AB00000F086FF00225C4B01F018FB02460B463B
:102AC0004046494601F05EF98946804601F0A8FD7E
:102AD000064601F0A5FA02460B464046494601F07B
:102AE00051F9002F8046894615DD6B1E98AAC7F163
:102AF000180102EB830353F8502C42FA01FB5E44A9
:102B00000BFA01FBCBEB0202C7F1170B43F8502C79
:102B100042FA0BFB10E007D198AC04EB850353F8A5
:102B2000543C4FEAE35B07E00022404B01F064FDB8
:102B300030B94FF0000B52E0BBF1000F02DC4EE069
:102B40004FF0020B0023013684AA1C460EE052F817
:102B5000041B1CB949B1C1F1807103E0C1F1FF113F
:102B600001F57F41012442F8041C0133AB42EEDB46
:102B7000002F1BDD012F02D0022F17D10AE06B1EA0
:102B800098A901EB830353F8502C22F07F4222F4E2
:102B9000000209E06B1E98AA02EB830353F8502C45
:102BA00022F07F4222F4400243F8502CBBF1020F86
:102BB00015D142464B4600201D4901F0E3F88046FE
:102BC000894664B13A460020194900F0BDFF02462B
:102BD0000B464046494601F0D5F8804689464046B6
:102BE00049460022002301F0E9FC00287CD00023A4
:102BF00084AC29461A4604EB850001E0C458224300
:102C0000029C0139043BA142F8DA002A6FD184A961
:102C10004FF0010B01EB84030EE000BFB882010806
:102C20000000703E00007041000020400000E03FC6
:102C30000000F03F0BF1010B53F8042D002AF9D0EE
:102C400005995CAA02EBC50A0CAA6B186C1CAB4474
:102C5000A39902EBC302089B00260A92ED18B8461E
:102C600001EB85050B95554639E00B990A9A8B19AE
:102C700002EB4607586801F0D3F9059ADDF8249075
:102C80000CAB04EB020A002203EBCA0A0023CDE9D5
:102C900006234B465246C146A246A84614461D4648
:102CA000C7E9000100270EE074E902230137F5E8C7
:102CB000020101F01BFA02460B46DDE9060101F0B4
:102CC00063F8CDE90601009B9F42EDDD5446DDE946
:102CD000062345460134C8460436E5E902235C452F
:102CE000C3DD47465D46A2E6059670B100E0059655
:102CF00084AC183F04EB8503013D01E0013D183F22
:102D000053F8042D002AF9D039E0404649467A426A
:102D100000F01AFF0022954B8046894601F06CFCBA
:102D200020B30022924B4046494601F0DFF91837A4
:102D300001F076FC01F074F998AA02EB85048B4B44
:102D400000220135CDE9000101F0D0F90B46024621
:102D50004946404601F016F801F062FC98AB44F891
:102D6000500C03EB8504DDE9000104E098A940461E
:102D700001EB8504494601F053FC44F8500C3A46F7
:102D800000207C492F4600F0DFFE5CAA84AB0026C1
:102D900002EBC50803EB8509CDE9000117E059F8FE
:102DA000060008EB460401F03BF9013F043E0246F1
:102DB0000B46DDE9000101F099F900226C4BC4E9F2
:102DC0000001DDE9000101F091F9CDE90001002FDA
:102DD000E5DA0DF1C80A2E460027A84654461CE045
:102DE000F4E902230135F6E9020101F07FF9024618
:102DF0000B46DDE9000100F0C7FFCDE900010299B3
:102E00008D4201DCBD42EBDD4E46DDE90023444648
:102E1000013ED0460137E4E90223002E13DBDFF840
:102E2000589106F1FF3A5CAB002203EBCA0A00237B
:102E3000CDE900234B462246B14654460025C24602
:102E40001E469046DBE7A29C4546032C00F2E88034
:102E5000DFE804F01108080234AA474602EBC8066E
:102E600034467EE098AB444603EBC8060023A6F543
:102E7000C4761F4626E098A9002201EBC804134639
:102E8000A4F5C47408E01046194674E90223013D14
:102E900000F07AFF02460B46002DF4DABBF1000F7A
:102EA00001D003F10043049C10461946C4E9000117
:102EB000B6E01846394676E90223013C00F064FF8B
:102EC00003460F46002CF4DA3A46BBF1000F01D05E
:102ED00007F10047049C1846394617461A463B46F8
:102EE000C4E9000198AC74E9640100F04BFF264688
:102EF000012402460B4608E010461946F6E9022373
:102F0000013400F041FF02460B46AC42F4DDBBF158
:102F1000000F01D003F10043049C10461946C4E998
:102F200002017DE054E90289013FD4E900234046D3
:102F30004946CDE9022300F027FFCDE900014046D4
:102F4000DDE90023494600F01DFF02460B46DDE99E
:102F5000020100F019FFDDE90023C4E9000164E982
:102F60000223002FDEDC2C4627E000BF000070416A
:102F70000000703E0000F03FC082010856E902895F
:102F8000013CD6E9002340464946CDE9022300F042
:102F9000FBFECDE900014046DDE90023494600F093
:102FA000F1FE02460B46DDE9020100F0EDFEDDE92F
:102FB0000023C6E9000166E90223012CDEDC98ABA0
:102FC000002003EBC5040146A4F5C47404E074E9D1
:102FD0000223013D00F0D8FE012DF8DCBBF1000F0B
:102FE0000DD1049CDDE93423C4E90023DDE9362357
:102FF000C4E9022302460B46C4E9042310E0049C02
:1030000001F10041349B20612360359B616103F134
:1030100000436360369BA360379B03F10043E3608A
:10302000059C04F007000DF5197DBDE8F08F00BF89
:103030002DE9F04F85B006460F46CDE9002321F07B
:103040000043B3F1795F04DA01F0EAFA002800F0F6
:103050008C8032463B463046394601F047F83246CE
:103060003B4604460D4601F041F843A3D3E9002353
:1030700082468B462046294601F038F840A3D3E922
:10308000002300F07FFE02460B462046294601F051
:103090002DF83DA3D3E9002300F076FE02460B464F
:1030A0002046294601F022F839A3D3E9002300F095
:1030B00069FE02460B462046294601F017F836A362
:1030C000D3E9002300F060FE0E9B80468946BBB921
:1030D00042464B462046294601F008F830A3D3E982
:1030E000002300F04FFE02460B465046594600F0C2
:1030F000FDFF02460B463046394600F045FE32E001
:103100000022294BDDE9000100F0F0FF42464B466A
:10311000CDE902015046594600F0E8FF02460B4651
:10312000DDE9020100F02EFE02460B46204629464C
:1031300000F0DCFFDDE9002300F024FE18A3D3E952
:10314000002304460D465046594600F0CFFF024684
:103150000B462046294600F017FE02460B46304635
:10316000394600F00FFE06460F463046394605B098
:10317000BDE8F08FAFF300807CD5CF5A3AD9E53D5A
:10318000EB9C2B8AE6E55A3E7DFEB157E31DC73E18
:10319000D561C119A0012A3FA6F810111111813F74
:1031A000495555555555C53F0000E03FAFF30080E8
:1031B0002DE9F04F9846154B21F0004A89B007469B
:1031C0009A450E469146DDF848B0029124DC01F0A4
:1031D00027FA002846D14AEA070A0BF101025AEA07
:1031E000020208D138463146FDF7A2F902460B46E5
:1031F0000020074907E0BBF1010F00F0BE8105493F
:1032000000203A46334601F09BF8B1E1FFFF2F3E24
:103210000000F03F0000F0BF954B9A4522DD029B75
:103220003A46002BB8BF01F1004673A1D1E9000175
:103230003346B8BF08F1004800F0A4FD4A464346B3
:103240004FF00009C84604460D466DA1D1E90001C2
:1032500000F098FD02460B462046294600F094FDFA
:1032600007460E463A4633463846314600F03EFFA2
:1032700002460B46CDE9000100F038FF3A463346DE
:1032800004460D46DDE9000100F030FF5EA3D3E9FE
:103290000023CDE904012046294600F027FF5CA366
:1032A000D3E9002300F070FD02460B462046294674
:1032B00000F01CFF58A3D3E9002300F065FD02468F
:1032C0000B462046294600F011FF55A3D3E9002301
:1032D00000F05AFD02460B462046294600F006FF44
:1032E00051A3D3E9002300F04FFD02460B462046D0
:1032F000294600F0FBFE4EA3D3E9002300F044FD75
:103300004DA3D3E90023CDE906012046294600F06C
:10331000EDFE4BA3D3E9002300F036FD02460B4639
:103320002046294600F0E2FE47A3D3E9002300F03F
:103330002BFD02460B462046294600F0D7FE44A34B
:10334000D3E9002300F020FD02460B462046294623
:1033500000F0CCFE40A3D3E9002300F015FD0246A7
:103360000B462046294600F0C1FE3DA3D3E90023C9
:1033700000F00AFD02460B46DDE9000100F0B6FE52
:1033800002460B46DDE9060100F0FEFC02460B4654
:10339000DDE9040100F0AAFE4A46434600F0F4FCD1
:1033A00002460B46DDE9000100F0A0FE02460B4696
:1033B0004846414600F0E8FC2BA3D3E9002304462D
:1033C0000D46DDE9040100F091FE02460B46204661
:1033D000294600F0D9FCCDE900013846DDE900239B
:1033E000314600F0D1FC224B9A4504460D467DDD66
:1033F00040E000BFAFF30080182D4454FB21E93FAB
:10340000075C143326A6813C735360DBCB75F3BE97
:10341000A69237A0887E143F0165F2F2D844433F5C
:10342000280356C9226D6D3F37D60684F464963F53
:103430007AFE10111111C13FD47ABF74702AFB3E7D
:10344000E9A7F0320FB8123F68108D1AF726303F07
:103450001583E0FEC8DB573F93846EE9E326823F85
:10346000FE41B31BBAA1AB3F635555555555D53FEA
:103470002794E53F584600F0D3FD22462B4682466E
:103480008B462046294600F031FE52465B46804678
:1034900089462046294600F077FC02460B46404606
:1034A000494600F04DFFDDE9002300F06BFC0246C9
:1034B0000B463846314600F065FC02460B4600F0EC
:1034C00063FC02460B465046594600F05BFC029BEB
:1034D0000446981700F002000D46C0F1010000F00C
:1034E0009FFD22462B4600F001FE41E0BBF1010F9B
:1034F00041D002460B4689468B460020214900F008
:103500001FFF4FF0000842464B46C2464446CDE9F5
:103510000201104642460D4600F0E8FD00221A4B1B
:1035200000F032FC3A4633468046894650465946BA
:1035300000F028FC02460B46DDE9000100F022FC09
:1035400002460B465046294600F0D0FD02460B4687
:103550004046494600F018FC02460B46DDE90201F0
:1035600000F0C4FD02460B465046294600F00CFC14
:1035700007460E4601E007460E463846314609B07A
:10358000BDE8F08F0000F0BF0000F03FAFF3008017
:103590002DE9F04F21F00042614D85B006460F46FF
:1035A000AA4201F0004432D95E4DAA4221D95E4DB3
:1035B000AA420ED921F07F43804623F47003894646
:1035C000034302D002460B4686E1002C00F0C8817E
:1035D000C4E145A3D3E9002301F018F848B144A1A0
:1035E000D1E9000102460B4600F080FD06460F4679
:1035F000B6E15CB340A3D3E900233046394600F07E
:10360000C3FB0022002300F0E3FFF8B1A6E1474B23
:103610009A425BD9464B9A4218D839A3D3E9002382
:103620004CB900F0AFFB01240FF2DC09D9E90089A5
:1036300082468B4635E000F0A7FB4FF0FF340FF2D7
:10364000D009D9E9008982468B462AE032A3D3E922
:1036500000233046394600F049FD00220CB1354BBD
:1036600000E0354B00F090FB00F0DAFF044600F07C
:10367000D7FC23A3D3E900238046894600F036FD1A
:1036800002460B463046394600F07CFB1EA3D3E9C8
:10369000002382468B464046494600F027FD80467F
:1036A000894642464B465046594600F06BFB06465B
:1036B0000F4632463B465046594600F063FB4246B1
:1036C0004B4600F05FFBCDE902013AE01B4B9A420A
:1036D00036D807A3D3E9002300F056FB02460B4679
:1036E000ABE000BFAFF30080EF39FAFE422E864018
:1036F0009C7500883CE4377E59F3F8C21F6EA50123
:103700000000E0FE422EE63F763C7935EF39EA3D97
:10371000763C7935EF39EABDFE822B654715F73FD8
:1037200079684340412E8640FFFFEF7F422ED63F0F
:10373000B1A2F03F0000E0BF0000E03FFFFF8F3C80
:1037400000240022944B3046394600F0CFFC8046DE
:10375000894642464B463046394600F0C7FC84A3B2
:10376000D3E9002382468B4600F0C0FC82A3D3E954
:10377000002300F009FB02460B465046594600F074
:10378000B5FC7FA3D3E9002300F0FCFA02460B4608
:103790005046594600F0AAFC7BA3D3E9002300F071
:1037A000F3FA02460B465046594600F09FFC78A3B8
:1037B000D3E9002300F0E6FA02460B46504659468C
:1037C00000F094FC0022754B00F0DEFA42464B46B6
:1037D000CDE9000100F08AFC02460B46002070494A
:1037E00000F0D0FA804689464246DDE900014B46AA
:1037F00000F0C8FA42464B46CDE900013046394652
:1038000000F074FC02460B460020664900F0BAFA4C
:1038100002460B46DDE9000100F092FD02460B4630
:103820005046594600F062FC02460B4664B93046E9
:10383000394600F05BFC52465B4600F0A3FA0246B4
:103840000B46304639465BE0DDE9022300F09AFA88
:1038500002460B463046394600F048FCDDE90223BB
:1038600000F090FA5B46524600F08CFA631C8046EA
:1038700089460CD142464B463046394600F082FA22
:103880000022454B00F032FC0022434B38E0012C73
:1038900025D1304639460022434B00F099FE78B1DD
:1038A00000223D4B3046394600F06EFA02460B4688
:1038B0004046494600F066FA00224FF0404393E646
:1038C00042464B463046394600F05CFA02460B460B
:1038D00000F05AFA314B002200F056FA86E6631CDB
:1038E000392B10D932463B4600F04CFA02460B46C3
:1038F00000202A4900F046FA284B002201EB04512F
:1039000000F040FA72E6132C13DC4FF40013324639
:103910004FF000082341C3F17F5303F540193B46A4
:1039200000F030FA02460B464046494600F02AFABB
:1039300010E0C4F57F75002203352B0500F024FA52
:1039400002460B463046394600F01CFA0022134B63
:1039500000F01AFA064601EB045701E0134F002667
:103960003046394605B0BDE8F08F00BFAFF30080A8
:103970002DC3096EB7FD8ABE3952E686CACFD03E46
:10398000B7DBAA9E19CE143F8555FE19A0015A3FF8
:10399000F41011111111A13F0000E03F0000F03FB1
:1039A00000000840000018400000D0BF0000F0BF39
:1039B00021F0004000F1004000F58010C00F70477A
:1039C0002DE9F84FC1F30A57A7F2FF368246132EAE
:1039D0008B460C468146054636DC002E17DA38A3A6
:1039E000D3E9002300F0D0F90022002300F00EFEFE
:1039F00000285FD0002C5BDA2BF0004343EA0A0575
:103A0000314B002D18BF002518BF1C4652E02F4F28
:103A1000374107EA010303434ED029A3D3E900232A
:103A200000F0B2F90022002300F0F0FD002841D0A0
:103A3000002C05DA4FF4801353FA06F60BEB06045C
:103A400024EA0704002535E0332E09DDB6F5806F42
:103A500032D102460B4600F097F982468B462BE0A6
:103A60004FF0FF38A7F2134328FA03F818EA000FC3
:103A700022D013A3D3E9002300F086F9002200230B
:103A800000F0C4FDB0B1002C0FDA142E01D10134C6
:103A90000BE00123C7F58667033713FA07F70AEB34
:103AA0000705554538BF0BEB030425EA080501E07F
:103AB00000252C46A346AA4650465946BDE8F88F35
:103AC0009C7500883CE4377E0000F0BFFFFF0F00CC
:103AD0000B4611B1B1F1004F00D1E0B1124AA3F58C
:103AE0008011914219D903F1FF4101F5E0019142A2
:103AF00013D90E4A934212D903F1004191420ED9D3
:103B00000B4A934202D013F5801F0AD1D0F1010075
:103B100038BF002070470220704704207047032000
:103B200070470020704700BFFFFFDF7FFFFF0F00DF
:103B30000000F07F0020704700200149704700BF5F
:103B40000000F87F000000002DE9F843C1F30A5798
:103B500004460D4616460B467FB921F00043034349
:103B600052D000222E4B00F0C1FA2E4B9E4204464A
:103B70000D468046894609DA33E040F2FF729742EB
:103B800008D102460B4600F0FFF83BE0C1F30A57AC
:103B90000B46363FBA1940F2FE718A420FDC002A0A
:103BA00006DD23F0FF4323F4E00343EA02552BE054
:103BB00012F1350F19DA4CF250339E420ADD2246DB
:103BC0002B4613A1D1E9000100F05CF810A3D3E962
:103BD000002315E010A1D1E9000122462B4600F098
:103BE00051F80DA3D3E900230AE0363223F0FF4356
:103BF00023F4E003204643EA02550B4B29460022FA
:103C000000F074FA04460D4620462946BDE8F883C4
:103C10009C7500883CE4377E59F3F8C21F6EA501FD
:103C200000005043B03CFFFF0000903CAFF3008029
:103C3000F0B1B0F1004F1BD0A0F500026FF00143CE
:103C40009A4217D900F1FF429A4213D90C4A431EF7
:103C5000934211D900F10043013B93420CD9B0F1DA
:103C6000FF4F0BD010F5000F14BF0020012070474C
:103C700002207047042070470320704701207047DE
:103C8000FEFF7F0003F0004321F0004230B50D46F7
:103C9000044643EA020130BD002956D080EA010CF7
:103CA00048BF49424A1E38D0030048BF43428B42B6
:103CB00038D911423ED0B1FA81F2B3FA83F0A2EBC7
:103CC00000004FF0010201FA00F102FA00F24FF099
:103CD00000008B4224BF5B1A1043B3EB510F24BF8B
:103CE000A3EB510340EA5200B3EB910F24BFA3EBC7
:103CF000910340EA9200B3EBD10F24BFA3EBD103B1
:103D000040EAD200002B1CBF5FEA12120909E0D181
:103D1000BCF1000F48BF404270479CEA000F48BF0B
:103D20004042704738BF002004BF4FEAEC7040F0BB
:103D300001007047B1FA81F2C2F11F02BCF1000F1D
:103D400023FA02F048BF404270470028C8BF6FF016
:103D50000040B8BF4FF0004000F00EB80029F4D08A
:103D60002DE90340FFF79AFFBDE8064002FB00F390
:103D7000A1EB0301704700BF704700BF81F0004115
:103D800002E000BF83F0004330B54FEA41044FEA40
:103D9000430594EA050F08BF90EA020F1FBF54EADB
:103DA000000C55EA020C7FEA645C7FEA655C00F077
:103DB000E2804FEA5454D4EB5555B8BF6D420CDD48
:103DC0002C4480EA020281EA030382EA000083EACB
:103DD000010180EA020281EA0303362D88BF30BD6B
:103DE00011F0004F4FEA01314FF4801C4CEA1131C1
:103DF00002D0404261EB410113F0004F4FEA033320
:103E00004CEA133302D0524263EB430394EA050FAA
:103E100000F0A780A4F10104D5F1200E0DDB02FA19
:103E20000EFC22FA05F2801841F1000103FA0EF2AD
:103E3000801843FA05F359410EE0A5F120050EF173
:103E4000200E012A03FA0EFC28BF4CF0020C43FAA4
:103E500005F3C01851EBE37101F0004507D54FF0B1
:103E6000000EDCF1000C7EEB00006EEB0101B1F501
:103E7000801F1BD3B1F5001F0CD349085FEA300047
:103E80004FEA3C0C04F101044FEA445212F5800F52
:103E900080F09A80BCF1004F08BF5FEA500C50F1EF
:103EA000000041EB045141EA050130BD5FEA4C0CD2
:103EB000404141EB010111F4801FA4F10104E9D15B
:103EC00091F0000F04BF01460020B1FA81F308BF52
:103ED0002033A3F10B03B3F120020CDA0C3208DD1E
:103EE00002F1140CC2F10C0201FA0CF021FA02F1F9
:103EF0000CE002F11402D8BFC2F1200C01FA02F169
:103F000020FA0CFCDCBF41EA0C019040E41AA2BF8D
:103F100001EB0451294330BD6FEA04041F3C1CDA55
:103F20000C340EDC04F11404C4F1200220FA04F075
:103F300001FA02F340EA030021FA04F345EA03011F
:103F400030BDC4F10C04C4F1200220FA02F001FAE1
:103F500004F340EA0300294630BD21FA04F0294663
:103F600030BD94F0000F83F4801306BF81F48011FC
:103F70000134013D4EE77FEA645C18BF7FEA655C6F
:103F800029D094EA050F08BF90EA020F05D054EA41
:103F9000000C04BF1946104630BD91EA030F1EBF46
:103FA0000021002030BD5FEA545C05D1400049414A
:103FB00028BF41F0004130BD14F580043CBF01F53D
:103FC000801130BD01F0004545F0FE4141F4700123
:103FD0004FF0000030BD7FEA645C1ABF19461046FE
:103FE0007FEA655C1CBF0B46024650EA013406BFFF
:103FF00052EA033591EA030F41F4002130BD00BFBE
:1040000090F0000F04BF0021704730B54FF480647A
:1040100004F132044FF000054FF0000150E700BFFB
:1040200090F0000F04BF0021704730B54FF480645A
:1040300004F1320410F0004548BF40424FF0000147
:104040003EE700BF42004FEAE2014FEA31014FEA8A
:1040500002701FBF12F07F4393F07F4F81F06051D9
:10406000704792F0000F14BF93F07F4F704730B548
:104070004FF4607401F0004521F0004120E700BFDB
:1040800050EA010208BF704730B54FF000050AE062
:1040900050EA010208BF704730B511F0004502D563
:1040A000404261EB41014FF4806404F132045FEA65
:1040B000915C3FF4DCAE4FF003025FEADC0C18BF0A
:1040C00003325FEADC0C18BF033202EBDC02C2F100
:1040D000200300FA03FC20FA02F001FA03FE40EA92
:1040E0000E0021FA02F11444C1E600BF70B54FF092
:1040F000FF0C4CF4E06C1CEA11541DBF1CEA135574
:1041000094EA0C0F95EA0C0F00F0DEF82C4481EADB
:10411000030621EA4C5123EA4C5350EA013518BFFB
:1041200052EA033541F4801143F4801338D0A0FBE8
:1041300002CE4FF00005E1FB02E506F00042E0FB95
:1041400003E54FF00006E1FB03569CF0000F18BF9B
:104150004EF0010EA4F1FF04B6F5007F64F5407443
:1041600004D25FEA4E0E6D4146EB060642EAC621D6
:1041700041EA55514FEAC52040EA5E504FEACE2E43
:10418000B4F1FD0C88BFBCF5E06F1ED8BEF1004F46
:1041900008BF5FEA500E50F1000041EB045170BDC2
:1041A00006F0004646EA010140EA020081EA030106
:1041B000B4EB5C04C2BFD4EB0C0541EA045170BD02
:1041C00041F480114FF0000E013C00F3AB8014F17C
:1041D000360FDEBF002001F0004170BDC4F10004C5
:1041E000203C35DA0C341BDC04F11404C4F1200546
:1041F00000FA05F320FA04F001FA05F240EA0200A1
:1042000001F0004221F0004110EBD37021FA04F6D6
:1042100042EB06015EEA430E08BF20EAD37070BD90
:10422000C4F10C04C4F1200500FA04F320FA05F0EF
:1042300001FA04F240EA020001F0004110EBD370F1
:1042400041F100015EEA430E08BF20EAD37070BD61
:10425000C4F1200500FA05F24EEA020E20FA04F33A
:1042600001FA05F243EA020321FA04F001F00041E9
:1042700021FA04F220EA020000EBD3705EEA430E5A
:1042800008BF20EAD37070BD94F0000F0FD101F089
:104290000046400041EB010111F4801F08BF013CC2
:1042A000F7D041EA060195F0000F18BF704703F000
:1042B0000046520043EB030313F4801F08BF013D87
:1042C000F7D043EA0603704794EA0C0F0CEA135543
:1042D00018BF95EA0C0F0CD050EA410618BF52EAFD
:1042E0004306D1D181EA030101F000414FF0000003
:1042F00070BD50EA410606BF1046194652EA430611
:1043000019D094EA0C0F02D150EA013613D195EA84
:104310000C0F05D152EA03361CBF104619460AD1CC
:1043200081EA030101F0004141F0FE4141F47001D6
:104330004FF0000070BD41F0FE4141F4780170BDC6
:1043400070B54FF0FF0C4CF4E06C1CEA11541DBF2B
:104350001CEA135594EA0C0F95EA0C0F00F0A7F82D
:10436000A4EB050481EA030E52EA03354FEA01315A
:1043700000F088804FEA03334FF0805545EA13136D
:1043800043EA12634FEA022245EA111545EA106535
:104390004FEA00260EF000419D4208BF964244F1CC
:1043A000FD0404F5407402D25B084FEA3202B61AEB
:1043B00065EB03055B084FEA32024FF480104FF4BF
:1043C000002CB6EB020E75EB030E22BFB61A754633
:1043D00040EA0C005B084FEA3202B6EB020E75EBC6
:1043E000030E22BFB61A754640EA5C005B084FEA2E
:1043F0003202B6EB020E75EB030E22BFB61A7546FB
:1044000040EA9C005B084FEA3202B6EB020E75EB05
:10441000030E22BFB61A754640EADC0055EA060EC6
:1044200018D04FEA051545EA16754FEA06164FEA09
:10443000C30343EA52734FEAC2025FEA1C1CC0D1B5
:1044400011F4801F0BD141EA00014FF000004FF042
:10445000004CB6E711F4801F04BF01430020B4F103
:10446000FD0C88BFBCF5E06F3FF6AFAEB5EB030CBB
:1044700004BFB6EB020C5FEA500C50F1000041EBB8
:10448000045170BD0EF0004E4EEA113114EB5C0485
:10449000C2BFD4EB0C0541EA045170BD41F4801158
:1044A0004FF0000E013C90E645EA060E8DE60CEA60
:1044B000135594EA0C0F08BF95EA0C0F3FF43BAF7D
:1044C00094EA0C0F0AD150EA01347FF434AF95EA34
:1044D0000C0F7FF425AF104619462CE795EA0C0F18
:1044E00006D152EA03353FF4FDAE1046194622E7E5
:1044F00050EA410618BF52EA43067FF4C5AE50EABF
:1045000041047FF40DAF52EA43057FF4EBAE12E7AE
:104510004FF0FF3C06E000BF4FF0010C02E000BF8F
:104520004FF0010C4DF804CD4FEA410C7FEA6C5C72
:104530004FEA430C18BF7FEA6C5C1BD001B050EA15
:10454000410C0CBF52EA430C91EA030F02BF90EA00
:10455000020F0020704710F1000F91EA030F58BFBF
:10456000994208BF90422CBFD8176FEAE37040F021
:10457000010070474FEA410C7FEA6C5C02D150EABF
:10458000013C07D14FEA430C7FEA6C5CD6D152EA7A
:10459000033CD3D05DF8040B704700BF844610463F
:1045A00062468C461946634600E000BF01B5FFF73E
:1045B000B7FF002848BF10F1000F01BD4DF808ED0E
:1045C000FFF7F4FF0CBF012000205DF808FB00BFDF
:1045D0004DF808EDFFF7EAFF34BF012000205DF839
:1045E00008FB00BF4DF808EDFFF7E0FF94BF012086
:1045F00000205DF808FB00BF4DF808EDFFF7CEFF87
:1046000094BF012000205DF808FB00BF4DF808EDC5
:10461000FFF7C4FF34BF012000205DF808FB00BF96
:104620004FEA410212F5001215D211D56FF47873DA
:10463000B3EB625212D94FEAC12343F0004343EA7D
:10464000505311F0004F23FA02F018BF4042704758
:104650004FF00000704750EA013005D111F00040E2
:1046600008BF6FF0004070474FF00000704700BF78
:104670004A0011D212F5001211D20DD56FF47873E1
:10468000B3EB62520ED44FEAC12343F0004343EA36
:10469000505323FA02F070474FF00000704750EA81
:1046A000013002D14FF0FF3070474FF000007047EB
:1046B0004FEA4102B2F1E04324BFB3F5001CDCF144
:1046C000FE5C0DD901F0004C4FEAC0024CEA50707C
:1046D000B2F1004F40EB830008BF20F001007047AB
:1046E00011F0804F21D113F13872BCBF01F00040AE
:1046F000704741F480114FEA5252C2F11802C2F1E0
:10470000200C10FA0CF320FA02F018BF40F0010060
:104710004FEAC1234FEAD32303FA0CFC40EA0C0012
:1047200023FA02F34FEA4303CCE77FEA625307D14F
:1047300050EA01331EBF4FF0FE4040F44000704786
:1047400001F0004040F0FE4040F40000704700BF20
:1047500080F0004002E000BF81F0004142001FBF36
:104760005FEA410392EA030F7FEA226C7FEA236C3F
:104770006AD04FEA1262D2EB1363C1BFD218414034
:1047800048404140B8BF5B42192B88BF704710F0CA
:10479000004F40F4000020F07F4018BF404211F06D
:1047A000004F41F4000121F07F4118BF494292EAD5
:1047B000030F3FD0A2F1010241FA03FC10EB0C0001
:1047C000C3F1200301FA03F100F0004302D549428E
:1047D00060EB4000B0F5000F13D3B0F1807F06D33B
:1047E00040084FEA310102F10102FE2A51D2B1F133
:1047F000004F40EBC25008BF20F0010040EA030028
:104800007047490040EB000010F4000FA2F10102D4
:10481000EDD1B0FA80FCACF1080CB2EB0C0200FA5E
:104820000CF0AABF00EBC25052421843BCBFD040AC
:104830001843704792F0000F81F4000106BF80F426
:1048400000000132013BB5E74FEA41037FEA226CE9
:1048500018BF7FEA236C21D092EA030F04D092F0B4
:10486000000F08BF0846704790EA010F1CBF0020E8
:10487000704712F07F4F04D1400028BF40F0004045
:10488000704712F100723CBF00F50000704700F065
:10489000004343F0FE4040F4000070477FEA22628C
:1048A00016BF08467FEA23630146420206BF5FEA5D
:1048B000412390EA010F40F4800070474FF000035D
:1048C00004E000BF10F0004348BF40425FEA000C24
:1048D00008BF704743F0964301464FF000001CE0CC
:1048E00050EA010208BF70474FF000030AE000BF22
:1048F00050EA010208BF704711F0004302D5404260
:1049000061EB41015FEA010C02BF844601460020D1
:1049100043F0B64308BFA3F18053A3F50003BCFAEC
:104920008CF2083AA3EBC25310DB01FA02FC634499
:1049300000FA02FCC2F12002BCF1004F20FA02F2A0
:1049400043EB020008BF20F00100704702F1200293
:1049500001FA02FCC2F1200250EA4C0021FA02F2F4
:1049600043EB020008BF20EADC7070474FF0FF0CF9
:104970001CEAD0521EBF1CEAD15392EA0C0F93EAF4
:104980000C0F6FD01A4480EA010C400218BF5FEA96
:1049900041211ED04FF0006343EA501043EA511109
:1049A000A0FB01310CF00040B1F5000F3EBF490003
:1049B00041EAD3715B0040EA010062F17F02FD2A07
:1049C0001DD8B3F1004F40EBC25008BF20F00100EA
:1049D000704790F0000F0CF0004C08BF49024CEA01
:1049E000502040EA51207F3AC2BFD2F1FF0340EA93
:1049F000C250704740F400004FF00003013A5DDC04
:104A000012F1190FDCBF00F000407047C2F1000244
:104A1000410021FA02F1C2F1200200FA02FC5FEA31
:104A2000310040F1000053EA4C0308BF20EADC707B
:104A3000704792F0000F00F0004C02BF400010F4ED
:104A4000000F013AF9D040EA0C0093F0000F01F09A
:104A5000004C02BF490011F4000F013BF9D041EABC
:104A60000C018FE70CEAD15392EA0C0F18BF93EABE
:104A70000C0F0AD030F0004C18BF31F0004CD8D1E8
:104A800080EA010000F00040704790F0000F17BF6F
:104A900090F0004F084691F0000F91F0004F14D0B5
:104AA00092EA0C0F01D142020FD193EA0C0F03D10D
:104AB0004B0218BF084608D180EA010000F0004010
:104AC00040F0FE4040F40000704740F0FE4040F4EB
:104AD000400070474FF0FF0C1CEAD0521EBF1CEA8A
:104AE000D15392EA0C0F93EA0C0F69D0A2EB0302A8
:104AF00080EA010C49024FEA402037D04FF0805342
:104B000043EA111143EA10130CF000408B4238BF06
:104B10005B0042F17D024FF4000C8B4224BF5B1A14
:104B200040EA0C00B3EB510F24BFA3EB510340EA62
:104B30005C00B3EB910F24BFA3EB910340EA9C0010
:104B4000B3EBD10F24BFA3EBD10340EADC001B0180
:104B500018BF5FEA1C1CE0D1FD2A3FF650AF8B4224
:104B600040EBC25008BF20F0010070470CF0004C31
:104B70004CEA50207F32C2BFD2F1FF0340EAC2505C
:104B8000704740F400004FF00003013A37E792F01D
:104B9000000F00F0004C02BF400010F4000F013A7B
:104BA000F9D040EA0C0093F0000F01F0004C02BF76
:104BB000490011F4000F013BF9D041EA0C0195E7DF
:104BC0000CEAD15392EA0C0F08D142027FF47DAF78
:104BD00093EA0C0F7FF470AF084676E793EA0C0F68
:104BE00004D14B023FF44CAF08466EE730F0004C66
:104BF00018BF31F0004CCAD130F000427FF45CAFF6
:104C000031F000437FF43CAF5FE700BF4FF0FF3C63
:104C100006E000BF4FF0010C02E000BF4FF0010CB6
:104C20004DF804CD4FEA40024FEA41037FEA226C7F
:104C300018BF7FEA236C11D001B052EA530C18BFA1
:104C400090EA010F58BFB2EB030088BFC81738BF06
:104C50006FEAE17018BF40F0010070477FEA226CF4
:104C600002D15FEA402C05D17FEA236CE4D15FEAF0
:104C7000412CE1D05DF8040B704700BF8446084624
:104C80006146FFE70FB5FFF7C9FF002848BF10F1E5
:104C9000000F0FBD4DF808EDFFF7F4FF0CBF01202A
:104CA00000205DF808FB00BF4DF808EDFFF7EAFFB4
:104CB00034BF012000205DF808FB00BF4DF808ED6F
:104CC000FFF7E0FF94BF012000205DF808FB00BF64
:104CD0004DF808EDFFF7D2FF94BF012000205DF8EA
:104CE00008FB00BF4DF808EDFFF7C8FF34BF0120F7
:104CF00000205DF808FB00BF4FEA4002B2F1FE4F12
:104D00000FD34FF09E03B3EB12620DD94FEA00238D
:104D100043F0004310F0004F23FA02F018BF404266
:104D200070474FF00000704712F1610F01D142024D
:104D300005D110F0004008BF6FF0004070474FF001
:104D40000000704742000ED2B2F1FE4F0BD34FF07D
:104D50009E03B3EB126209D44FEA002343F00043F1
:104D600023FA02F070474FF00000704712F1610F14
:104D700001D1420202D14FF0FF3070474FF00000E6
:104D8000704700BF014B1868704700BF0800002043
:104D90002DE9F341384C00F073F800F0A1F8092038
:104DA0000121102513F02AF80326204601A9ADF8A9
:104DB00004508DF807508DF8066012F073FE012143
:104DC0002E4812F0CFFE2561284604F580640121AB
:104DD00013F014F84FF02008204601A9ADF8048024
:104DE0008DF807508DF8066012F05CFEC4F8108054
:104DF00028464FF00408012113F000F80DEB0801DC
:104E00002046ADF804808DF807508DF8066012F04A
:104E100049FEC4F810802846012112F0EFFF4FF43C
:104E20008058204601A98DF80750ADF804808DF810
:104E3000066012F037FE28460121C4F8108012F0F7
:104E4000DDFF2F46204601A94FF48065ADF80450E0
:104E50008DF807708DF8066012F024FE25610BF0C6
:104E6000E5FE0BF0D5FA0BF01DFB0BF07BFB10F011
:104E700079FBBDE8FC8100BF000C0140000130005F
:104E800013F0A2B8134B70B59E6800241D461A7B20
:104E9000BAB9142303FB04552A752961FFF7D2F828
:104EA0004FF011320C4BFFF74BFA0C4B0022FEF780
:104EB0006BFFFFF7DDFB01238619AE61E8612B7301
:104EC00005E001341433082CE1D14FF0FF342046C3
:104ED00070BD00BF703700201111913F0000E03F0E
:104EE00038B500F017F80A4B002119600A465960DE
:104EF0001C469960142000FB014501311A731A61A8
:104F00002A7510359A61DA6114330829F3D138BD56
:104F100070370020064B074AF0215A60064A0720E6
:104F200082F8231000219960186082F823107047DE
:104F300010E000E07E4F120000ED00E01B4B2DE979
:104F4000F0419A6801329A605A6802F5921202F5AD
:104F500078625A605968164A91420BD95968154AC5
:104F60008A185A601A6801321A60134BDA6882F0A4
:104F70001002DA600D4C002526464FF01408012778
:104F8000237B6BB1B268A3699A4209D3E269D31853
:104F9000A36108FB05631F7523690BB1E8B298474D
:104FA00001351434082DEBD1BDE8F08170370020B5
:104FB000FFA14A04005EB5FB000C014000000000A8
:104FC00008B5FFF73FF80022094BFFF78FF806A35B
:104FD000D3E90023FEF7D8FEFBF7EAFAFBF750FD12
:104FE000FFF766FB08BD00BF182D4454FB21E93FC5
:104FF0000000E03FAFF300802DE9F04F87B0019053
:10500000007B062301385843B1380491FFF708F8B4
:1050100089A3D3E90023FFF769F8FFF749FB049A56
:1050200004465068FFF70EF800228D4B06460F46E7
:10503000FFF75CF882A3D3E90023FEF7A5FEFBF798
:10504000B7FAFBF71DFDCDE9020130463946FBF703
:1050500073FA7DA3D3E90023FFF748F80022814BC0
:1050600006460F46FEF790FE3246804689463B468E
:1050700000207C49FEF786FE02460B464046494624
:10508000FFF75EF9FBF7FCFC049B0F460646214642
:105090001868FFF761FBFEF7D5FF82468B46FBF7EA
:1050A0004BFA6BA3D3E90023804689463046394644
:1050B000FFF71CF802460B46DDE90201FEF762FE2F
:1050C000FFF7F6FAFEF7BEFF04460D46FBF70CFCB1
:1050D00002460B4640464946FFF732F9FBF7B2FB62
:1050E000FFF7E6FAFFF76CFF294602902046FBF730
:1050F00033FD04460D4650465946FBF7E1F902469A
:105100000B4620462946FFF71BF9FBF739F8FFF756
:10511000CFFA55490590FFF729FC534904460298F8
:10512000FFF724FC514F804602252846FFF7CAFBB3
:10513000814649460298FFF719FC00F10040FEF74E
:1051400081FFFBF729FCFFF7B3FA494606460598AD
:10515000FFF70CFCFEF776FF82468B46FBF7B0F9B3
:10516000FFF7A6FA594681465046FBF7E5F9FFF7E7
:105170009FFA834659463046FFF7F8FB314603460F
:105180000BF1004057F804AF0093FFF7A3FC009B1E
:1051900001461846FFF7E0FA4FF03F41FFF7E6FB04
:1051A000514600F10040FFF7E1FB01462046FFF7C2
:1051B000D5FA494604463046FFF7D8FB31468346C8
:1051C0004846FFF787FC01465846FFF7C5FA4FF0FF
:1051D0003F41FFF7CBFB5146FFF7C8FB0146404676
:1051E000FFF7BCFA0235062D80469ED1FEF72AFF56
:1051F00019A3D3E90023FEF779FFFFF759FA1C49F9
:10520000FFF7ACFA019A50602046FEF71BFF12A38D
:10521000D3E90023FEF76AFFFFF74AFA0021FFF700
:105220009DFA019B049A18609368019A936007B0F5
:10523000BDE8F08FAFF30080399D52A246DF913F69
:10524000182D4454FB21E93F000000401AF2B43FFE
:10525000000000401AF2A43F585BB16F2852584139
:105260000000E03F0000F03F2E927F3F08830108DE
:105270000024F448AFF300807047000010B5184BCD
:1052800018481B6800221418E48816499C52023200
:10529000182AF8D1CA781A760A78022A0CBF022195
:1052A0000021002A08BF41F00101002A0CBF102292
:1052B00000220A430C49097801290CBF0420002070
:1052C000024302290CBF082100211143074A5976E5
:1052D00011785268D976DA61054B01221A7010BD37
:1052E00038040020FE3B00204C3800209C38002071
:1052F000263800200A4B0B49B3F90E2012F5965FB1
:10530000B4BF002201220A704AB9074AD988118025
:1053100019895B8951809380044B01221A70704770
:10532000FE3B00204C380020A43800204F380020DD
:1053300070B5FFF72DFD00F05DFD0BF007FA1A4A7E
:105340001A4B11881A4819805188928859809A807E
:10535000184B01221A70002211461618023200243E
:10536000182A134B2546F180F7D13C2202265A70A9
:105370001E709C70DC701C710BF0C2FB0E4B214642
:105380001B680E485C769C760D4B1C700D4B1E7096
:10539000FFF778FD0C4B214618700C48FFF772FDA3
:1053A0000B4B187070BD00BF1C830108A43800208F
:1053B000FE3B00204F380020380400208988883CBC
:1053C000243800204C3800204D380020CDCCCC3D76
:1053D00053380020000000002DE9F04166480BF032
:1053E00081FAFFF749FF654B1A78E2B100221A7083
:1053F000634B1A70634B01221A70634B19780229B0
:1054000008BF1A701B78012B08D1604B1A68604BDB
:10541000118819805188598092889A805D4B0122A9
:105420001A70FFF72BFF5B4B1B78002B00F0998065
:10543000594A574BB2F90020188812F5707F9D88A1
:105440005B8807DBB2F5707FB4BF14464FF470740D
:10545000A4B201E04FF64044E418504BA4B2B3F9B3
:105460000020ADB212F5707F07DBB2F5707FB4BFDC
:1054700013464FF470739BB201E04FF6404300B205
:105480005D19FFF71FFA8046FEF7DCFD06460F4662
:1054900040460021ADB2FFF725FC18B132A3D3E995
:1054A000002301E00022002330463946FEF71EFEAD
:1054B000FFF7FEF8FFF720FC10F57A7306D2B3F57C
:1054C000FA6F28BF4FF4FA639BB201E04FF47A738E
:1054D000334F344E3B80336020B2FFF7F3F9FEF7D1
:1054E000B1FD23A3D3E90023FEF700FEFFF7E0F8A8
:1054F000FFF702FC00F2DC50B0F57A7F07D3B0F57D
:10550000FA6F34BF03464FF4FA639BB201E04FF4E5
:105510007A73BB80B36028B2FFF7D4F9FEF792FD2F
:1055200013A3D3E90023FEF7E1FDFFF7C1F8FFF76E
:10553000E3FB00F2DC50B0F57A7F07D3B0F5FA6FE9
:1055400034BF03464FF4FA639BB201E04FF47A7321
:10555000134A5380134A53600BF094F90D4B002209
:105560001A70BDE8F08100BF7E08ABAAAAAABA3FB4
:10557000E797AAAAAAAAAA3FF55200081C38002059
:1055800025380020243800204C3800203C0400201E
:10559000A43800204F380020AA380020AC38002062
:1055A000F83B0020E03B00202DE9F041784A1378D9
:1055B0000133DBB23B2B1370764B04D90021117001
:1055C0001A791971DA705B78724A3B2B02D902237F
:1055D000137008E01D2B03D9012111700F21917068
:1055E0006C4A013353706C4B1A782AB9694A1278A5
:1055F000022A01D101221A70684B1A781D2A05D996
:10560000674B00221A70FFF739FE01E001321A7071
:10561000614B197801290ED1614A12785AB90222D8
:105620001A70604A604B10881880508892885880A1
:105630009A805E4B19705E4B1A78002A40F08D817B
:105640005C4B19780131C9B27729197088BF1A707B
:10565000594B1A88013292B2B2F5967F1A8001D363
:1056600000221A80534B1B78002B40F0B780534820
:105670000E210AF021FE002800F0AC80504B992149
:105680001A884E480E321A804E4B4F4D1A884F4C96
:1056900001321A800AF08CFE0E2148480AF088FE7A
:1056A0000F232B7001211D23444823700AF080FE34
:1056B0002B7822786733374EDBB22B7067219B182B
:1056C0003E4823700AF074FE31782B782278CB188C
:1056D000DBB22B7039489B1823700AF069FEF17811
:1056E0002B782278CB18DBB22B7034489B182370B0
:1056F0000AF05EFE284B227819782B78344ECB18AE
:10570000DBB22B702D489B1823700AF051FE3178C4
:105710002B782278CB18DBB22B7028489B1823708B
:105720000AF046FE31792B782278CB18DBB22B7049
:1057300022489B1823700AF03BFE71792B7822785F
:10574000CB18DBB22B701D489B1823700AF030FE7B
:10575000B1792B782278CB18DBB22B7017489B18C5
:1057600023700AF025FEF1792B782278CB18DBB272
:105770002B7012489B1823700AF01AFE29780F48E4
:105780000AF016FE0D4821780AF012FE26E000BF4E
:105790004E380020FE3B00204C38002025380020E9
:1057A000243800201C830108A43800204F38002032
:1057B000AE3800204B3800205038002084390020BB
:1057C000403C00203C3C00204A3D00204B3D002056
:1057D0009C380020A04B1A7801321A709F4B1B880E
:1057E000062B55D19E480D210AF066FD002800F0D9
:1057F000B0809C4B9A481A8899210D321A809A4B96
:105800009A4D1A889A4C01321A800AF0D1FD9448B8
:105810000D210AF0CDFD0E232B7091481B23012191
:1058200023700AF0C5FD2B7822786633DBB22B702B
:105830008B489B18662123700AF0BAFD2B782278DA
:105840000333DBB22B7086489B18032123700AF0C8
:10585000AFFD884E0027B04618F817102B78227835
:10586000CB18DBB22B707E489B1823700AF0A0FD8A
:1058700071782B782278CB18DBB22B7078489B1884
:105880000137237002360AF093FD032FE4D155E06F
:105890000C2B62D172480D210AF00EFD002858D061
:1058A000704B6F481A8899210D321A806E4B6F4DDC
:1058B0001A886F4C01321A800AF07AFD68480D216F
:1058C0000AF076FD0E232B7065481B2301212370FF
:1058D0000AF06EFD2B7822786933DBB22B706048BA
:1058E0009B18692123700AF063FD2B78227803331B
:1058F000DBB22B705A489B18032123700AF058FD25
:105900005D4E0027B04618F817102B782278CB1878
:10591000DBB22B7052489B1823700AF049FD717856
:105920002B782278CB18DBB22B704D489B180137AF
:10593000237002360AF03CFD032FE4D14B4B48485C
:1059400019780AF035FD4A4B454819780AF030FDC0
:1059500003E0414B1A7801321A70484B1B78012B37
:1059600040F01282464B1A780132D2B21D2A1A70C8
:1059700001D900221A70434B1A780132D2B23B2A65
:105980001A7001D900221A703F4B1A88013292B264
:10599000B2F5967F1A8001D300221A80384B1B780B
:1059A000002B00F0DA80062B72D12D481F210AF05F
:1059B00083FC002800F0CD802A4B29481A889921C1
:1059C0001F321A80284B294D1A88294C01321A801F
:1059D0000AF0EEFC22481F210AF0EAFC20232B707B
:1059E0001F483F23012123700AF0E2FC2B78227824
:1059F0006533DBB22B701A489B18652123700AF0BF
:105A0000D7FC2B7822780C33DBB22B7014489B1810
:105A10000C2123700AF0CCFC1C4E002706F106086E
:105A200018F817102B782278CB18DBB22B700C48A3
:105A30009B1823700AF0BCFCF1792B782278CB18E4
:105A4000DBB22B7006489B180137237002360AF030
:105A5000AFFC0C2FE4D171E03E3C00205038002018
:105A600084390020403C00203C3C00204A3D00207E
:105A70004B3D0020A4380020F83B0020AE38002029
:105A8000523800204A38002048380020FE3B0020D1
:105A90000C2B62D17B480D210AF00EFC002858D057
:105AA000794B78481A8899210D321A80774B784DB6
:105AB0001A88784C01321A800AF07AFC71480D215C
:105AC0000AF076FC0E232B706E481B2301212370F5
:105AD0000AF06EFC2B7822786633DBB22B706948B3
